:020000040800F2
:1000000050050020A568000835680008376800081A
:10001000396800083B6800083D68000800000000DF
:100020000000000000000000000000003F68000821
:1000300041680008000000004368000845680008A7
:10004000D5680008D9680008DD680008E168000884
:10005000E5680008E9680008ED680008F168000834
:10006000F5680008F9680008FD68000801690008E3
:1000700005690008096900080D6900081169000890
:1000800015690008196900081D6900082169000840
:1000900025690008296900082D69000831690008F0
:1000A00035690008396900083D69000841690008A0
:1000B00045690008496900084D6900085169000850
:1000C00055690008596900085D6900086169000800
:1000D00065690008696900086D69000871690008B0
:1000E00075690008796900087D6900088169000860
:1000F00085690008896900088D6900089169000810
:1001000095690008996900089D690008A1690008BF
:10011000A5690008A9690008AD690008B16900086F
:10012000B5690008B9690008BD690008C16900081F
:10013000C5690008C9690008CD690008D1690008CF
:10014000D5690008D9690008DD690008E16900087F
:10015000E5690008E9690008ED690008F16900082F
:10016000F5690008F9690008FD690008016A0008DE
:10017000056A0008096A00080D6A0008000000000E
:10018000116A0008156A00082DE9F04F82460FF247
:100190005860A5B015461E46D0E90023CDE91223CC
:1001A00003AF00207960B8620DF1500900E04544CA
:1001B0000020ADF8020012AB4FF0FF3229460DF1DE
:1001C000020001F0AEF88046B8F1010F08DA287895
:1001D000B0F1010868EB08086FEA08004FEAD07830
:1001E000BDF8020025280CBFA8F1010BC346BBF1E6
:1001F000010F0EDB2C4614F8011B7868D04700284D
:10020000786000F0F880B86A401CBBF1010BB8625E
:10021000F1D1BDF80200252807D1002038617861AE
:10022000B861F8613862786205E00028BFD1B86A29
:10023000E2E240F0010015F8011F2029F9D023293E
:100240000DD02B2904D02D2906D030290AD00CE05E
:1002500040F0020080B2EEE740F00400FAE740F020
:100260000800F7E740F01000F4E72A290ED13168C2
:10027000316051F8042B3160002A3A6304D55142B1
:1002800040F00400396380B26D1C13E00021396333
:100290000BE0396B6FF00043994205D001EB81030D
:1002A00002EB4301303939636D1C2A78A2F1300129
:1002B0000A29EED329782E2903D04FF0FF31F962B5
:1002C0001FE015F8011F2A2907D1316831606D1C24
:1002D00051F8042B3160FA6213E00021F9620BE05F
:1002E000F96A6FF00043994205D001EB810302EBFC
:1002F00043013039F9626D1C2A78A2F130010A29D4
:10030000EED3B8860FF2E840297801F01BF808B167
:1003100015F8010B8DF842009DF84200682802BFD5
:1003200029786829622005D06C2804BF28786C28B9
:1003300003D171208DF842006D1C14A8F86015F8E7
:10034000014BB4F125002AD01C3800F0DB80001FDF
:10035000022840F2D780133800F0FB80093800F003
:10036000D180801E00F06581401E00F03C81401E5F
:10037000022840F2C780001F00F03581401F00F0C6
:100380009280401E00F0E580401E37D0C01E0BD08A
:10039000801E00F0DE80C01E00F0DB806CE12520B6
:1003A0008DF85000012070E19DF842006C28306803
:1003B000306016D050F8048B3060C7F80880FC6AB3
:1003C000002C04D5404600F0C9FF044607E0224651
:1003D0000021404600F0DEFF08B1A0EB08047C617C
:1003E00054E150F8042B306002A9504600F03EFA68
:1003F000002840F14B814FF0FF30FDE13168316062
:10040000002251F8040B31604FF03C0E0021CDE981
:10041000020114A8B860DDE902019142FC6808BF3E
:10042000904201D1FA6AC2B100F00F033033DBB25F
:100430003A2BA8BF2733AEF101020009A354964618
:1004400040EA017009090022914208BF904204D09D
:10045000BA6804EB0E039A42E6D304EB0E01B960CE
:10046000CEF13C00F96A7861884207DA081AF8612F
:100470004FF6EF71B88E0840B88607E1002940F1C9
:10048000058197F8341001F01401102940F0FE8026
:10049000396B3A69891AFA69891A081A0128C0F26F
:1004A000F580F861F2E09DF8420062281AD06828D1
:1004B00006D06A280CD06C281CD0712808D019E00E
:1004C0003068306050F8041B3060B86A0880DDE0A6
:1004D0003068306050F8042B3060B86AC117C2E948
:1004E0000001D3E03068306050F8041B3060B86A17
:1004F0000870CBE03068306050F8041B3060B86A98
:100500000860C3E03068C01D20F007023260D2E905
:10051000000108323260CDE90201002902D53869B4
:100520002D2109E0B88E810702D538692B2103E01F
:10053000C00705D53869202109F80010401C386132
:1005400014A839690844B860214602A800F09AFB53
:100550009CE09DF842006C280DD0712818BF6A28D5
:1005600009D13068C01D20F007023260D2E90001D5
:100570000832326005E03168316051F8040B3160B7
:100580000021CDE902019DF84200682803D1DDE990
:10059000020180B20BE0622803D1DDE90201C0B2A2
:1005A00005E0742818BF7A2804D1DDE90201002192
:1005B000CDE9020197F83400000731D5DDE90223C7
:1005C0000020834208BF82422AD044F020007828CD
:1005D00026D13869302109F80010401C411C3961CE
:1005E00009F800401CE09DF84200314600F007F990
:1005F000CDE90201DDE9022300218B4202DA3869EC
:100600002D2109E0B88E810702D538692B2103E03E
:10061000C00705D53869202109F80010401C386151
:1006200014A839690844B860214602A800F0A4FA69
:100630002CE09DF842006C2809D001203861306818
:10064000306050F8041B30608DF850101EE03068A8
:10065000306001AA50F8041B3060ADF8041000208F
:10066000ADF8060002A94FF0FF30F862504600F0E6
:10067000FDF800280AD5BEE625208DF8500001209F
:1006800038611CB189F8014002203861386B396942
:10069000401AF969401A7969401A396A401AB969E9
:1006A000401A796AA0EB010897F83400400711D48A
:1006B0002020B8F1010F8DF800000BDB4446012328
:1006C0006A4602A9504600F007FE00287FF493AE68
:1006D000641EF4D1D7F810B0BBF1000F14AC0DD0EC
:1006E00014F8011B7868D047002878603FF483AE87
:1006F000B86A401CBBF1010BB862F1D130208DF813
:100700000000FC69012C0ADB01236A4602A950465D
:1007100000F0E2FD00287FF46EAE641EF4D1D7F83D
:1007200014B0BC68BBF1000F0DD014F8011B786841
:10073000D047002878603FF45EAEB86A401CBBF139
:10074000010BB862F1D130208DF800003C6A012C19
:100750000ADB01236A4602A9504600F0BDFD0028CD
:100760007FF449AE641EF4D1B8687969D7F818B03F
:100770004418BBF1000F0DD014F8011B7868D04766
:10078000002878603FF437AEB86A401CBBF1010B1B
:10079000B862F1D130208DF800007C6A012C0ADBB0
:1007A00001236A4602A9504600F096FD00287FF416
:1007B00022AE641EF4D197F8340040077FF5F8AC00
:1007C0002020B8F1010F8DF80000FFF6F1AC0123F5
:1007D0006A4602A9504600F07FFD00287FF40BAE68
:1007E000B8F10108F3D1E3E40000000000000000CC
:1007F000686A6C747A4C000025B0BDE8F08F6228FE
:1008000026D068281DD06A2808D06C2827D07128E7
:1008100004D0742823D07A280CD020E00868C01DAA
:1008200020F007000860D0E900230830086019466E
:10083000104670470A680A6052F8040B0A600021EB
:1008400070470A680A6052F8040B0A6000B20BE0B5
:100850000A680A6052F8040B0A6040B204E00A68B1
:100860000A6052F8040B0A60C11770472DE9F44F73
:100870000D4694B0D5F830A0BAF1000F804648BFBD
:100880006FF0004A00F0B2FD696B401801900FF65E
:100890007820D0E90023CDE9022395F838004007FD
:1008A00002D40198412805D240200DF11009019091
:1008B000002609E000F0A0FD5FEA0009F8D14FF042
:1008C000FF3056E1AAEB040ABAF1010FC0F2CE8064
:1008D0001498018802AA0DF1010000F0E5FD00283E
:1008E000044600F1DE801498008810B9641E00F1FF
:1008F000D880A245C0F2BA80686901992218914255
:1009000080F0A2806E634042296A401AA969401AA9
:10091000696A401AE969401AA96A461A95F83800C6
:10092000400710D42020012E8DF800000BDB374645
:1009300001236A462946404600F0CEFC002840F0DC
:10094000B0807F1EF4D1D5F814B0BBF1000F4F4634
:100950000DD017F8011BA868C0470028A86000F058
:10096000A080E86A401CBBF1010BE862F1D13020A5
:100970008DF800002F6A012F0ADB01236A46294601
:10098000404600F0A9FC002840F08B807F1EF4D187
:10099000D5F818B0EF68BBF1000F0CD017F8011BA9
:1009A000A868C0470028A8607BD0E86A401CBBF15B
:1009B000010BE862F2D130208DF800006F6A012F40
:1009C00009DB01236A462946404600F085FC0028E1
:1009D00067D17F1EF5D1E868A969D5F81CB0471822
:1009E000BBF1000F0CD017F8011BA868C047002806
:1009F000A86056D0E86A401CBBF1010BE862F2D156
:100A000030208DF80000AF6A012F09DB01236A4610
:100A10002946404600F060FC002842D17F1EF5D1F7
:100A200095F8380040070DD52020012E8DF80000E4
:100A300008DB01236A462946404600F04DFC80BB96
:100A4000761EF6D100266E61224668690DF101011D
:100A5000484400F037FD6869201868611498801CCC
:100A60001490801E008800287FF42CAF686B6969A1
:100A7000401A296A401AA969401A696A401AE96944
:100A8000401AA96AA0EB010A95F83800400710D473
:100A9000BAF1010F0DDB5446A8682021C047A860B9
:100AA00010B94FF0FF365DE0E86A401C641EE86252
:100AB000F2D16B694A462946404600F00DFC0028F9
:100AC000EFD12C6A012C0ADBA8683021C04700282E
:100AD000A860E6D0E86A401C641EE862F4D1AB6905
:100AE000EA682946404600F0F7FB0028D9D16C6A35
:100AF000012C0ADBA8683021C0470028A860D0D0AC
:100B0000E86A401C641EE862F4D1E868A969EB69F0
:100B100042182946404600F0DFFB0028C1D1AC6AEC
:100B2000012C0ADBA8683021C0470028A860B8D093
:100B3000E86A401C641EE862F4D195F8380040076A
:100B40000ED5BAF1010F0BDBA8682021C0470028A1
:100B5000A860A6D0E86A401CBAF1010AE862F3D1A5
:100B60006E616E6304A881451CBF484600F0E6FC38
:100B7000304615B0BDE8F08F2DE9F3430546084631
:100B80002F696F2808BF082405D041F0200178297B
:100B900014BF0A2410243C26D5E90023642818BF7A
:100BA00069289046994606D100218B4203DAD8F194
:100BB000000869EB49090020814508BF80450CD138
:100BC000286B50B9082C38D195F83800000734D577
:100BD00030203B2687F83B002FE0701E0090064631
:100BE000404649462246E31700F0E8FC02F1300097
:100BF000C0B23A2803DB9DF8041051390818B855E3
:100C0000494640462246E31700F0D8FC8046894614
:100C10000020814508BF804503D0E868B9198842A3
:100C2000DBD3082C09D195F83800000705D5B85D4D
:100C3000302802D0761E3020B855B919E960C6F1C7
:100C40003C00296BA861884208DA081A28624FF62E
:100C5000EF71288F08402887BDE8F38300290ED55F
:100C600095F8381001F01401102908D1696B6A69F0
:100C7000891A2A6A891A0E1A012EA8BF2E62BDE8A7
:100C8000F38300002DE9F24F04468EB0D4E9000151
:100C9000CDE9020104AF9DF8380040F0200BBBF114
:100CA000610F0AD0206B002848BF062004D408BF7B
:100CB000BBF1670F01D1012020636168C1F30A50C5
:100CC00040F2FF7290421CD1080304BF2068002844
:100CD00009D10320A0619DF8380061381A2835D366
:100CE0000FF2386108E00320A0619DF838006138F8
:100CF0001A2828D30FF21C61E068032200F0E2FBFF
:100D0000BDE1012815DA204600F0CFFC012810DBF8
:100D100000250020BBF1610F1FD1E16830220A706D
:100D20008A1CE2609DF83820612A0CBF7822582284
:100D30000FE0626840F2FE3161F31E52451A6260B4
:100D40004FF0FF30E6E70FF2C851D5E70FF2C85178
:100D5000D2E74A706169891C616110B900260025DB
:100D600084E1BBF1610F40F09880206BD4E900ABC7
:100D700000284CBF2126461CDDE902010022002389
:100D800000F0B6FC36B23ABF8BF00040CDE902A0CD
:100D9000CDE902AB06F101082D1FB8F1010F8DF866
:100DA00010200DF1110736DBDDE9020100220023DE
:100DB00000F0B6FC2FD21C2102A800F0C9FCDDE92E
:100DC000020100F04FFDA8F10708B8F1010F8146BC
:100DD00009DB00F073FD02460B46DDE9020100F07D
:100DE00085FDCDE90201F81D072105E009F00F029C
:100DF00000F8012D4FEA2919B9F1010F01DB491E55
:100E0000F4D5491E5CBF002200F8012DF9D5C71D9D
:100E1000B8F1010FC8DA0DF11100391AB142B8BFAB
:100E20000E4636B230000DF111072FD4884206DA93
:100E300004A9014449780829A8BF0F2100DA00213C
:100E400004AA024400E0761E12F80139401E8B42CB
:100E5000F9D00F2904D104A901444A78521C4A70E0
:100E6000002802D504AF761C2D1D36B2701E0DD49D
:100E700039180A783032D2B23A2A03DB9DF838307A
:100E80003A3B9A18401E01F80129F2D5206B002840
:100E900040F1EC80701E2063E8E0DDE902010022F1
:100EA000002300F025FC3CBF81F00041CDE90201A8
:100EB0002DB247F2975068434B49DFF8309190FBD1
:100EC000F1F52DB2C5F1070ABAF1010F90461CDB0E
:100ED000DDE902675FEACA7007D542464B463046F5
:100EE000394600F0C3FD06460F4640464946424695
:100EF0004B464FEA6A0A00F0B9FDBAF1000F80468E
:100F00008946E7D1CDE9026724E0CAF1000A00264C
:100F1000374F14E05FEACA7007D542464B46304669
:100F2000394600F0A3FD06460F4640464946424674
:100F30004B4600F09BFD4FEA6A0A80468946BAF1AB
:100F4000000FE7D1DDE9020132463B4600F060FECA
:100F5000CDE90201BBF1660F216BDFF898900CBF61
:100F600005F10A0006204618142EA8BF13263020CB
:100F70008DF810000DF11107012E3DDBDDE90201B6
:100F800000F086FC07F1080104220A23B0FBF3F30A
:100F900003EB8307A0EB4700303001F8010C0A2077
:100FA000B3FBF0F000EB8007A3EB47033033521E96
:100FB00001F8023DE9D1083E012E01F10807DBDB13
:100FC000DDE9020100F064FC00F082FC02460B4601
:100FD000DDE9020100F08AFC00224B4600F046FDEC
:100FE000CDE90201CAE700BFA0860100000024404D
:100FF0000000F03F84D797410DF11100381A0DF130
:10100000110702E0401E6D1E7F1C39783029F9D08F
:10101000BBF1660F08BF691C04D0BBF1650F0CBFA4
:1010200001210021226B8E1836B2B042B8BF0646AD
:1010300036B231001AD4814204DA785C3528A8BF70
:10104000392000DA30207A18521E00E0761E12F89D
:101050000139491E8342F9D0392802D1785C401CFD
:101060007854002902D57F1E761C6D1C2DB29DF888
:101070003810009533B23A46204600F003F80FB01E
:10108000BDE8F08F2DE9F04786B006468A469046C7
:101090001D4600F006FF012D406A376B90F8009066
:1010A00002DA01250FF278284AF02000BDF9384015
:1010B000662808BF641C12D0672878D114F1040F89
:1010C0007BDBBC4279DA96F83800641C000702D456
:1010D000BD42B8BF2F4624B23F1B48BF002724B2F1
:1010E000F068B169012C23DA4A1C30234354012FE4
:1010F00003DA96F83800000703D5F06800F802908C
:10110000521CE742B8BF7C4224B260427062E719C9
:10111000AF42B261B8BF3D46F068B3692DB2F56128
:101120002A464146184400F0CDF9781BB062BCE075
:1011300022469542084416DA2A46414600F0C2F992
:10114000B1696918601B012FB161706203DA96F80A
:101150003800000705D5F06800F80190F069401CE0
:10116000F061B762A1E0414600F0ACF9B069201827
:101170002D1B012F03DA96F83810090703D5F16803
:1011800001F80090401CB0612DB2AF42B8BF3D469F
:10119000F068B3692DB22A4608EB0401184400F048
:1011A00091F9B0692818B061781B70627DE0BAF1DE
:1011B000610F14D14FF0700A16E0BD4204DA96F8C0
:1011C0003810090758BF2F467F1E48BF0027BAF1C5
:1011D000670F14BF4FF0450A4FF0650A04E0BAF1FB
:1011E000410F08BF4FF0500AB169F368481CB06165
:1011F000012F18F8012B5A5403DA96F83810090712
:1012000017D5F168431CB36101F80090012F10DB82
:101210006D1E2DB2AF42B8BF3D46F0682DB22A46D2
:101220004146184400F04EF9B0692818B061781BA7
:101230007062F068B1690144200081F800A004D414
:101240002B20487001F1020804E02D224A7001F1C0
:1012500002086442002502AF08E00A22684600F056
:1012600039FE019807F8010B6D1C009C21B2012981
:10127000F3DA022D06DA4AF02000652804BF302098
:1012800008F8010B4DB9302008F8010B07E06D1E7E
:1012900002A8405D303008F8010B012DF7DAF06844
:1012A000B1690844A8EB0000F06196F8380000F03E
:1012B000140010280DD17069B1690818716A0818F6
:1012C000F1690818B16A0818716B8842BCBF081A26
:1012D000306206B0BDE8F087F8B504460D46164604
:1012E0001F46002077B116F8011BA868A047A86028
:1012F00030B1E86A401CE86200207F1EF3D1F2BDE5
:101300004FF0FF30F2BD00000000000000000000C0
:101310006E616E004E414E00696E6600494E460099
:101320003000F8B504460D4616461F4600F0DAFDBB
:101330003B4632462946204601B0BDE8F04000F069
:10134000E8BD00000278C9B28A421AB11CBF10F889
:10135000012FF9E718BF00207047000000F10103DA
:10136000810704D010F8011B89B18107FAD1026806
:10137000B2F10131914311F0803F04BF50F8042FC6
:10138000F6E710F8011B11B110F8011BFBE7C01ABA
:1013900070470000C9B2830706D0521E22D310F84E
:1013A000013B9942F7D11FE0083A13D302F104023E
:1013B00041EA012141EA014150F8043B121F21BFDB
:1013C0004B40A3F1013C2CEA030C1CF0803FF3D00E
:1013D000C9B2001F083210F8013B521E28BF91EA23
:1013E000030FF8D818BF0120401E704780B500F0E9
:1013F00079FD012002BD000070B5054605F10F0022
:10140000C408AFF30080E400A54232D2082C04D215
:10141000082402E0083000F091F822480268110028
:101420000CD1011D0A6802B31368A34238BF111D15
:10143000F8D310E01D68A5420DD2191D0B68002BD2
:10144000F8D11268011D00E0191D0B6893420CD001
:101450001D68A542F8D361B10D682A68A2F108039E
:10146000A3420AD26A680A600FE000F075FD002806
:10147000D0D1AFF30080002070BD2B190B60121B80
:101480006E685E600B681A602C60096800291DBFD9
:101490004A68002A091D00210160AFF3008005F1B0
:1014A000080070BD8808002070B504460D46164639
:1014B00000F018FD324629462046BDE8704000F095
:1014C0001BBD000062B38B0708D0521E11F8013B10
:1014D00000F8013B00F024808B07F6D1830740F031
:1014E000208000BF103A07D330B4B1E83810103A6A
:1014F000A0E83810F9D230BC530724BFB1E8081077
:10150000A0E8081044BF51F8043B40F8043BD20760
:1015100024BF31F8022B20F8022B44BF0B78037054
:101520007047083A07D3B1E80810083A40F8043B7E
:1015300040F804CBF7D25307E4E7000000B9704746
:1015400038B5A0F108042068082833D310F0070F3D
:1015500030D1AFF300801848416809B18C4203D202
:101560006160446017E019464B680BB1A342FAD39F
:101570000B68CD18AC421BD3A54204D12268D21807
:101580000A600C4607E04A681AB1236823449A426D
:101590000ED362604C60616851B12268A3188B421F
:1015A00006D10023036008688018206048686060E6
:1015B000AFF3008031BD0000880800201B4213D12A
:1015C000094236D12AB18446B0FBF2F002FB10C2C8
:1015D000704700F0D7BCFCD30022002370470B00FB
:1015E0000200002100207047904271EB030CF6D3FB
:1015F00070B5B1FA81F4B3FA83F52C1BA340C4F1A2
:10160000200532FA05F63343A2405FF00046E6407B
:1016100002E05B085FEA3202841A71EB030524BF23
:10162000204629467641F4D302000B003000002109
:1016300070BD012ACFD970B5140C20D0B1FA81F455
:10164000B2FA82F5C4F120046419B4F12006D6D3AD
:10165000B2405FF00044F440002502E052085FEA27
:101660003303C61A71EB020E24BF30467146644143
:101670006D41F3D302000B002000290070BD0C4621
:10168000B1FBF2F102FB11452D0445EA1045B5FB13
:10169000F2F402FB145580B240EA0545B5FBF2F0C6
:1016A00002FB105240EA044070BD30B4436803F0BE
:1016B00000420121C3F313034360002B04BF0368FE
:1016C000002B08D10DE00368DD0F45EA44044460B7
:1016D0005B000360491E4468E302F4D5C4F31303BE
:1016E000436043681A434260084630BC70470000BC
:1016F0004FF4001C1CEB410F94BF1CEB430F09E09F
:1017000041EA030C50EA4C0C52EA0C0C03D2994209
:1017100008BF9042704714BF8B428242704700005E
:101720004FF4001C1CEB410F94BF1CEB430F09E06E
:1017300041EA030C50EA4C0C52EA0C0C03D28B42E7
:1017400008BF8242704714BF994290427047000020
:1017500070B504460D466068C0F30A5040F2FF7150
:10176000884207D16068000304BF2068002817D0B2
:10177000022070BD20B92046FFF797FF012866DAE6
:10178000012D0FDB40F2FF71091A8D420AD3606808
:1017900000284CBF9FED2F0B9FED300B84ED000B0D
:1017A000012070BD4142A942616806DA6FF31E5103
:1017B000401941EA0050606040E0401E63684519EE
:1017C000012205F1350062F31F53352801F0004175
:1017D000636003D361600020206070BD002015F1BC
:1017E0001F0F04DA206823600022203562606A42FD
:1017F00012D0401E25688041C2F12003C0439D40A5
:1018000045EAD07025686668D54006FA03F32B4395
:1018100023606368D340636062680A43B0F1004F9D
:10182000626003D80DD12078C0070AD52068401C1B
:101830002060206828B96068401C60604FF0FF306D
:1018400070BD6068884204BF20680028F6D100207F
:1018500070BD00BF000000000000F0FF00000000AD
:101860000000F07FF446400D40EAC120490006D256
:1018700000F014F8004248BF6FF00040604700F0ED
:101880000DF84FF0004188428CBF08464042604747
:10189000400D40EAC120490080F00D8040F000403A
:1018A000490DA1F58061491C05D4D1F11F0154BF38
:1018B000C840C01770474FF000007047010040F16A
:1018C0000980F446404200F005F851F000416047BD
:1018D000010000BF09D0B0FA80F18840C91CC1F5F1
:1018E0008461090501EBD02140057047F0B44FF049
:1018F000004591EA030F44BF6B4000F045BB00BFB9
:10190000841A71EB030604D26E40001BB141121918
:1019100073414FF4001C1CEB410F34BF7CEB4306BA
:1019200084E00C0DA4EB1356362E7DDC012E43DC37
:1019300045EAC32343EA525312BFD20292025B0824
:10194000240545EAC12141EA5051D2EBC02099411A
:1019500025D407D1B0FA80F610FA06F164D0002041
:10196000203608E0B1FA81F6B140C6F1200220FA33
:1019700002F21143B0404FEAF474B4EB465434F031
:1019800001064FEA74040AD8D6F50016760D04F065
:101990000044F04061FA06F25040F1404840C00A6D
:1019A00040EA415021F0004128BF5FEA500550F164
:1019B000000044EBD12137E045EAC323DB0A45EAC6
:1019C000C121C90AB6F120050EDD42EA0242120C1D
:1019D000C5F1200603FA06F6EB4042EA06056D4221
:1019E000984161F100010DE062FA06F5F2405540C0
:1019F00063FA06FC82EA0C02F3405A406D429041C1
:101A000061EB030111F4801F05D1641E620502D051
:101A10006D004041494121F48011430875F10043B4
:101A200050F1000041EB0451F0BC70471CEB410F3A
:101A300015D223F0004352EA43060BD04FEA4C0C78
:101A4000BCEB410F04D80C0D661E342EB7DDEBE75E
:101A5000801A994150EA410608BF0021E4E708BF17
:101A60001CEB430F28BF6FF00001DDE7B0B581EA42
:101A7000030C0CF0004C40F2FF7515EA11541DBF29
:101A800015EA1357AC42AF4239E0E41923EA455353
:101A900043F48013C90241F0004141EA505EC7029D
:101AA0001100A7FB020200284FF00000EEFB01200E
:101AB0004FF00001E3FB072118BF42F0010240187C
:101AC00000214941E3FB0E01A4F580640F0302D21B
:101AD00052004041494154F101046CDD470872F164
:101AE000004250F1000051EB0451A1F580115CBFA0
:101AF00041EA0C01B0BD4CEA05510020B0BD05EA39
:101B00001357AC4214BFAF4241E050EA410E1CBF34
:101B100052EA430E02E061460020B0BD24423C443C
:101B20001BD15FEA070EF6D0090302BF0146002071
:101B3000AEF1140EB1FA81F7AEEB070401FA07FE1D
:101B40000C37C7F1200100FA07F7C8404EEA000E33
:101B500023EA455343F48013A2E733F00043B3FA7A
:101B600083F704BFB2FA82FE77440B3FE41BB7F160
:101B7000200E2FBF02FA0EF3BB40C7F1200E22FA4F
:101B80000EFE38BF43EA0E03BA40641C82E750EAF7
:101B9000410E14BF52EA430E6FF000014FF40017DC
:101BA00017EB430F8ABF194617EB410FB5E74CEA15
:101BB00005510020B0BDD4F10104B4F120070FDAC3
:101BC000C4F12007520828BF42F0010210FA07F5BD
:101BD00001FA07F7E1BF2A43E0403843E1400FE054
:101BE000352C98DCC7F1200452EA400220FA07F2B3
:101BF00018BF42F0010231FA07F0A1400A43002168
:101C000072F1004250F1000051EB0C01B0BD000038
:101C10002DE9F04140F2FF7581EA030C0CF0004C15
:101C200015EA11541DBF15EA1357AC42AF42E9E063
:101C3000BC41C1F31301C3F31303801A994143F468
:101C4000801304D2641E4000494180185941C902E2
:101C500041EA5051B1FBF3F603FB1611A2FB0675E6
:101C6000D7EBC020A94102D2761E80185941C90283
:101C700041EA5051B1FBF3FE03FB1E11A2FB0E75AE
:101C8000D7EBC020A94103D2AEF1010E8018594113
:101C9000890241EA9051760546EA8E2EB1FBF3F6B1
:101CA00003FB1611A2FB0675D7EB8020A94102D2D7
:101CB000761E80185941C90241EA50514EEA060E7B
:101CC000B1FBF3F603FB1611A2FB0675D7EBC020A0
:101CD000A94102D2761E80185941C90241EA5051E9
:101CE000B1FBF3F703FB1711A2FB0735D3EBC020C1
:101CF000A94167F100070CBF004247F0010766F3F6
:101D0000D5274FEA1E31B80814F5806414DDBD07ED
:101D100075F1004250EB0E5051EB045111F5801F4C
:101D20005CBF41EA0C01BDE8F0814CF07F6141F0FD
:101D3000E0410020BDE8F081BD076D0840EA0E508B
:101D400041F48011D4F10104B4F120060ADAC4F19F
:101D500020060200E04001FA06F3E1401843B240D9
:101D600015430EE0342C14DCC6F1200445EA40058E
:101D70006D0820FA06F2154321FA06F0A1400D4342
:101D8000002175F1004250F1000051EB0C01BDE85B
:101D9000F08100205FEA0C01BDE8F081CFB9921814
:101DA0005B41B3FA83F704BFB2FA82F6BF190B3F67
:101DB000B7F120062FBF02FA06F3BB40C7F1200699
:101DC00022FA06F638BF3343BA401CB1E419641E48
:101DD0002FE77F4231F00041B1FA81F404BFB0FA3D
:101DE00080F6A4190B3CB4F120062FBF00FA06F1CF
:101DF000A140C4F1200620FA06F638BF3143A040C6
:101E00003C1B16E7AC421ABF05EA1357AF4214E079
:101E100050EA41061CBF52EA4306BFE750EA4107B9
:101E2000304661461CBF41EA0551BDE8F08152EAE7
:101E3000430C08BFC143BDE8F08100204FF40016F9
:101E400016EB410F98BF16EB430F08BF16EB410F7F
:101E500024BFC14305E016EB430F0CBF61464CEABB
:101E60000551BDE8F081000080B5134800F0F6F898
:101E70000FF24C020FF244010160426241600FF226
:101E80004402826381600FF24402C16001614161DA
:101E900081618162C16201634163C2630164416423
:101EA00001BD10B5044800F0D9F80446206808B90F
:101EB000FFF7DAFF204610BD4C00002000000000B4
:101EC0002E00000066616C73650000007472756519
:101ED0000000000091FBF2F303FB1211C0E9003196
:101EE0007047000080B5DFF80C0000F0B7F880699B
:101EF00002BD0000DC00002030B430B90FF2480011
:101F0000D0E90045C2E900451BE00170012030BC6A
:101F1000704730B431B90FF23800D0E90045C3E959
:101F200000450EE01AB930BC6FF00100704708B1EF
:101F30000A7802800978481E804130BCC043C00F37
:101F40007047002030BC7047000000000000000017
:101F500000000000000000000749086808B10020E8
:101F600070470648C008C00008600549C908C90094
:101F7000091A0160704700BF98080020570500202B
:101F80005007002070470000841A71EB030603D24B
:101F9000001BB141121973414FF4001C1CEB410F9F
:101FA00034BF7CEB430443E00C0DA4EB1356352EF9
:101FB00050DC45EAC323DB0A45EAC121C912B6F168
:101FC00020050DDD63FA05F6EB4086EA03051242B3
:101FD00018BF45F00105C01851F100010CD213E003
:101FE00062FA06F5F2405540F3415A40B340F340DF
:101FF0005A408018594107D349085FEA30005FEA28
:10200000350528BF45F0010501F58011420875F13D
:10201000004250F1000041EB0451F0BC4FF4001CB1
:102020001CEB410F38BF70470020090D09057047B0
:102030001CEB410F10D252EA43060BD0BCEB410F10
:1020400005D80C0DAB43661E342EB5DD02E0AB4364
:1020500080185941F0BC7047F0BC704770470000D1
:10206000FF0000000200000000000000FF00070069
:102070000100000000000000FF0100000801000056
:1020800067000000FF0200001000000000000000D8
:10209000FF0400000800000000000000FF05000031
:1020A0000800000000000000FF060000080000001B
:1020B00000000000FF070000080000000000000012
:1020C000FF0800000801000000000000FF090000F8
:1020D0000800000000000000FF0A000008000000E7
:1020E00000000000FF0B00000800000000000000DE
:1020F000FF0C00001001000000000000FF0E0000B7
:102100000801000000000000FF0F000008010000AF
:1021100000000000FF1000000100000000000000AF
:10212000FF1001000100000000000000FF1002008D
:102130000100000000000000FF100300010000008B
:1021400000000000FF11000001000000010000007D
:10215000FF1101000100000001000000FF1200005B
:102160000100000000000000FF120100010000005B
:1021700000000000FF12020001000000000000004B
:10218000FF1203000100000000000000FF13000028
:102190000101000000000000FF1301000101000028
:1021A00000000000FF14000001010000000000001A
:1021B000FF1401000101000000000000FF140200F4
:1021C0000101000000000000FF14030001010000F5
:1021D00000000000FF1404000101000000000000E6
:1021E000FF1500000101000000000000FF150100C4
:1021F0000101000000000000FF15020001010000C5
:1022000000000000FF1503000101000000000000B5
:10221000FF1504000101000000000000FF1505008B
:102220000101000000000000FF1506000101000090
:1022300000000000FF150700010100000000000081
:10224000FF1600000101000000000000FF16010061
:102250000101000000000000FF1602000101000063
:1022600000000000FF160300010100000000000054
:10227000FF1604000101000000000000FF16050029
:102280000101000000000000FF160600010100002F
:1022900000000000FF160700010100000000000020
:1022A000FF1700000101000000000000FF170100FF
:1022B0000101000000000000FF1702000101000002
:1022C00000000000FF1703000101000000000000F3
:1022D000FF1704000101000000000000FF170500C7
:1022E0000101000000000000FF17060001010000CE
:1022F00000000000FF1707000101000000000000BF
:10230000FF1800000101000000000000FF1801009C
:102310000101000000000000FF18020001010000A0
:1023200000000000FF180300010100000000000091
:10233000FF1804000101000000000000FF18050064
:102340000101000000000000FF180600010100006C
:1023500000000000FF18070001010000000000005D
:10236000FF1900000101000000000000FF1901003A
:102370000101000000000000FF190200010100003F
:1023800000000000FF1A0000010100000000000032
:10239000FF1A01000101000000000000FF1A020006
:1023A0000101000000000000FF1A0300010100000D
:1023B00000000000FF1A04000101000000000000FE
:1023C000FF1A05000101000000000000FF1A0600CE
:1023D0000101000000000000FF1A070001010000D9
:1023E00000000000FF1B00000400000000000000CF
:1023F000FF1C00000400000000000000FF1D0000A2
:102400000500000000000000FF1E000005010000A4
:1024100000000000FF1F0000050000000000000099
:10242000FF2000000801000000000000FF7D000008
:102430000801000000000000FF7E0000080100000D
:1024400001000000FF7F000001000000010000000B
:102450000021000001000000000000000021010038
:102460000100000001000000002102000100000046
:102470000000000000210300010000000000000037
:102480000021040001000000000000000021050000
:102490000100000000000000002200000400000015
:1024A000070000000023000008000000F00000000A
:1024B000002400010D00000080FEFFFF0026000147
:1024C0000D00000080FFFFFF002800010D0000004C
:1024D00080000000002A00010D00000080010000C3
:1024E000002C00010D00000080FEFFFF002E000107
:1024F0000D00000080FFFFFF003000010D00000014
:1025000080000000003200010D000000800100008A
:10251000003400010D000000000000000036000142
:102520000D0000000000000000400000010000005D
:10253000000000000040010004000000070000004F
:102540000041000007000000000000000042000001
:10255000070000000000000000430000070000002A
:102560000000000000440000070000000000000020
:1025700000450000070000000000000000460000C9
:1025800007000000000000000047000007000000F6
:1025900000000000004800000700000000000000EC
:1025A0000049000001000000000000000049010097
:1025B00001000000010000000049020001000000CD
:1025C00001000000004903000100000001000000BC
:1025D000004904000100000001000000004905005E
:1025E0000100000001000000004906000100000099
:1025F00001000000004A0000040000000400000088
:10260000004A04000400000004000000004B000029
:102610000400000004000000004B0400040000005F
:1026200004000000004C0000040000000400000052
:10263000004C04000400000004000000004D0000F5
:102640000400000004000000004E00000400000030
:1026500004000000004E040003000000050000001C
:10266000005100000C0000000000000000530000BA
:102670000C000000FC0F00000055000008000000E6
:1026800007000000005600000800000000000000E5
:102690000057000008010000000000000058000082
:1026A00008010000000000000059000001000000C7
:1026B00001000000005901000100000001000000BD
:1026C000005A00000100000000000000005A010054
:1026D0000300000000000000005B00000800000094
:1026E00000000000005C0000080000001D00000069
:1026F000005D00000600000009000000005E000010
:102700000200000002000000005E02000200000063
:1027100001000000005E0400020000000000000054
:10272000005F00000400000001000000005F0400E2
:102730000400000002000000006000001000000023
:102740000A0000000062000001000000010000001B
:1027500000620100010000000100000000630000B1
:1027600004000000080000000063040002000000F4
:1027700002000000006400000700000000000000EC
:102780000065000008000000FF0000000066000077
:1027900001000000010000000067000008000000C8
:1027A00000000000006800000400000008000000B5
:1027B0000068040004000000070000000069010038
:1027C000010000000100000000690200010000009B
:1027D000010000000069030001000000010000008A
:1027E000006A00000100000001000000006A010012
:1027F0000100000001000000006A0200010000006A
:1028000000000000006A030001000000000000005A
:10281000006A04000101000000000000006A0500D9
:102820000101000000000000006A06000100000035
:1028300000000000006A0700010000000000000026
:10284000006B00000800000001000000006C0000A8
:102850000800000020000000006D000008000000DB
:1028600064000000006E000008000000640000002A
:10287000006F00000500000007000000007000006D
:1028800005000000050000000071000005000000C8
:1028900008000000007200000600000000000000B8
:1028A000007300000600000000000000007400003B
:1028B0000600000000000000007406000100000097
:1028C000000000000075000006000000000000008D
:1028D00001210000010000000000000001210100B2
:1028E00001000000000000000121020001000000C2
:1028F00000000000012200001000000000000000A5
:102900000124000004000000010000000124040074
:102910000400000002000000012500000300000088
:102920000000000001270001080000000000000076
:10293000012800010800000000000000012900003B
:102940000100000000000000012901000400000057
:102950000000000001290500010000000000000047
:10296000012906000100000000000000012A00000B
:102970000200000000000000012A02000300000025
:1029800005000000012A0500020000000000000010
:10299000012A07000100000001000000012B0000D7
:1029A0000100000000000000012B010001000000F8
:1029B00000000000012B02000300000000000000E6
:1029C000012C00000800000000000000012D0000A4
:1029D0000100000001000000012E000004000000C2
:1029E00001000000012E04000400000002000000AD
:1029F000012F0000100000000A000000013100005B
:102A00000100000001000000013101000100000090
:102A10000100000001320000080000000A00000070
:102A20000133000003000000030000000134000037
:102A3000080000001D000000013500000600000035
:102A400024000000013600000C000000000000001F
:102A500001380000020000000200000001380200FE
:102A60000200000001000000013804000200000024
:102A70000000000001390000080000000000000014
:102A8000013A00000200000000000000013A0200CC
:102A90000100000000000000013A030001000000F6
:102AA00001000000013B00000400000008000000DD
:102AB000013B04000200000003000000013B06008F
:102AC0000100000000000000013C000004000000C4
:102AD00007000000013C04000100000001000000AC
:102AE000013D000008000000FF000000013E000062
:102AF0000801000080000000013F0000030000000A
:102B000000000000013F030003000000000000007F
:102B1000013F06000100000000000000013F070027
:102B20000100000000000000014000000300000060
:102B30000000000001400300010000000000000050
:102B400001400400020000000000000001400600F7
:102B5000010000000000000001410000050000002D
:102B6000000000000141070001000000000000001B
:102B700001420000100000000000000001440000BD
:102B800020000000000000000148000020000000BC
:102B900000000000014C00000800000000000000E0
:102BA000014D00000100000001000000014D010086
:102BB0000200000000000000014D030001000000C1
:102BC00001000000014D04000100000000000000B1
:102BD000014D05000300000000000000015000004E
:102BE0000800000000000000015100000800000083
:102BF0000000000001520000010000000100000080
:102C0000015300000A000000000000000221000043
:102C1000080000000000000002220000080100007F
:102C20000000000002230000080000000000000077
:102C30000225000001000000000000000226000044
:102C4000080000000000000002270000080100004A
:102C50000000000002280000080000000000000042
:102C6000022A00000100000000000000022B00000A
:102C70000100000000000000022B01000100000024
:102C800000000000022B0200010000000100000013
:102C9000022B03000100000000000000022B0400D2
:102CA0000100000000000000022B050001000000F0
:102CB00000000000022B06000100000000000000E0
:102CC000022C00000200000000000000022D0000A5
:102CD0000400000002000000022D040004000000B7
:102CE00004000000022E00000400000002000000AA
:102CF000022E04000400000004000000022F000067
:102D00000500000000000000022F05000100000087
:102D100000000000022F060001000000000000007B
:102D2000022F070001000000000000000230000038
:102D30001000000000000000023300000801000045
:102D40000000000002340000080100000000000044
:102D500002360000080100000000000002380000F8
:102D60000801000000000000023900000801000016
:102D700000000000023A000008010000000000000E
:102D8000023B00000801000000000000023C0000BF
:102D90000801000000000000023D000008010000E2
:102DA00000000000023E00000801000000000000DA
:102DB000023F000008010000000000000240000087
:102DC00008010000000000000241000008010000AE
:102DD000000000000242000010010000000000009E
:102DE0000244000010010000000000000246000044
:102DF0002001000000000000024A00000401000061
:102E000000000000024A040004010000000000006D
:102E1000024B00000401000000000000024B04000F
:102E20000401000000000000024C0000040100004A
:102E300000000000024C040004010000000000003B
:102E4000024D00000401000000000000024D0400DB
:102E50000401000000000000024E00000401000018
:102E600000000000024F000003010000000000000D
:102E7000024F0300030100000000000002500000A8
:102E800008000000000000000251000008000000DF
:102E900000000000025200000100000000000000DD
:102EA0000252010001000000000000000252020076
:102EB00001000000000000000253000001000000BB
:102EC00000000000025400000100000000000000AB
:102ED0000254010001000000000000000254020042
:102EE0000200000000000000025404000300000083
:102EF0000000000002540700010100000000000073
:102F0000025500000800000000000000025600000A
:102F10000800000000000000025700000801000047
:102F2000000000000258000008010000000000003E
:102F300002590000010000000000000002590100D9
:102F40000100000001000000025A0001080000001A
:102F500000000000025B020106000000000000000B
:102F6000025C00011000000000000000025E000092
:102F70000401000000000000025F000005010000E5
:102F800000000000026000000501000000000000D9
:102F900002610000050100000000000001210000A6
:102FA00008000000000000002DE9F8430400002C98
:102FB00001D1012069E3DFF8BC09006810F00C00C2
:102FC0000600DFF8BC09006810F003000700207855
:102FD000C00640F1DE80002E05D00C2E40F08A8025
:102FE000012F40F08780DFF888090068800704D54A
:102FF000A069002801D1012047E3DFF874090068C7
:10300000000705D5DFF86809006810F0F00005E05A
:10301000DFF80C0A0068000910F0F000216A88420D
:1030200024D2206A00F0AEFC002801D001202CE35D
:10303000DFF83C09006850F00800DFF83419086038
:10304000DFF82C09006830F0F000216A0843DFF84F
:1030500020190860DFF8CC09006830F47F40E1698E
:1030600050EA0120DFF8BC19086025E0DFF800090C
:10307000006850F00800DFF8F8180860DFF8F00882
:10308000006830F0F000216A0843DFF8E4180860B7
:10309000DFF89009006830F47F40E16950EA0120D0
:1030A000DFF880190860002E06D1206A00F06AFC63
:1030B000002801D00120E8E200F0C0FBDFF8681929
:1030C000DFF8B0281268C2F30312895C11F01F0107
:1030D000C840DFF8A4180860DFF8A008006800F016
:1030E000B9FC80465FFA88F8B8F1000F51D040462D
:1030F000C0B2CAE2A069002834D0DFF874080068C2
:1031000050F00100DFF86818086000F0D5FC0500F9
:10311000DFF85C080068800706D400F0CDFC401B97
:103120000328F5D30320B0E2DFF84408006850F02C
:103130000800DFF83C180860DFF83408006830F059
:10314000F000216A0843DFF828180860DFF8D40887
:10315000006830F47F40E16950EA0120DFF8C418CC
:10316000086016E0DFF80808006840084000DFF853
:103170000018086000F0A0FC0500DFF8F407006804
:10318000800706D500F098FC401B0328F5D30320E8
:103190007BE22078C00762D5082E03D00C2E0BD11D
:1031A000032F09D1DFF8C8070068800357D560688E
:1031B000002854D1012068E26068B0F5803F08D152
:1031C000DFF8AC07006850F48030DFF8A41708601F
:1031D00024E06068B0F5A02F10D1DFF894070068F4
:1031E00050F48020DFF888170860DFF88407006853
:1031F00050F48030DFF8781708600FE0DFF87007D0
:10320000006830F48030DFF868170860DFF8600786
:10321000006830F48020DFF85817086060680028E4
:103220000ED000F049FC0500DFF844070068800379
:1032300015D400F041FC401B6528F5D3032024E29F
:1032400000F03AFC0500DFF828070068800306D587
:1032500000F032FC401B6528F5D3032015E22078EE
:10326000800758D5042E03D00C2E17D1022F15D16C
:10327000DFF8FC060068400504D5E068002801D1AD
:10328000012002E2DFF89C07006830F0F850216965
:1032900050EA0160DFF88C1708603CE0E068002825
:1032A00022D0DFF8CC06006850F48070DFF8C0163A
:1032B000086000F001FC0500DFF8B4060068400576
:1032C00006D400F0F9FB401B0328F5D30320DCE112
:1032D000DFF85007006830F0F850216950EA0160CB
:1032E000DFF84017086016E0DFF88406006830F465
:1032F0008070DFF87C16086000F0DEFB0500DFF868
:1033000070060068400506D500F0D6FB401B032878
:10331000F5D30320B9E12078000730D56069002893
:1033200016D0DFF8FC06006850F00100DFF8F01658
:10333000086000F0C1FB0500DFF8E40600688007C4
:103340001DD400F0B9FB401B0328F5D303209CE1FA
:10335000DFF8CC06006840084000DFF8C4160860BB
:1033600000F0AAFB0500DFF8B8060068800706D564
:1033700000F0A2FB401B0328F5D3032085E1207851
:10338000400740F196805FF00009DFF8A006006872
:10339000C00010D4DFF89406006850F08050DFF8C9
:1033A0008C160860DFF88406006810F080500090EA
:1033B000009801208146DFF878060068C00516D421
:1033C000DFF86C06006850F48070DFF8641608605F
:1033D00000F072FB0500DFF858060068C00506D44F
:1033E00000F06AFB401B0328F5D303204DE1A068E1
:1033F000012808D1DFF83C06006850F00100DFF832
:103400003416086023E0A068052810D1DFF82406F0
:10341000006850F00400DFF81C160860DFF814069E
:10342000006850F00100DFF80C1608600FE0DFF8CC
:103430000406006840084000DFF8F8150860DFF86F
:10344000F405006830F00400DFF8E8150860A068B3
:10345000002810D000F030FB0500DFF8D805006828
:10346000800719D400F028FB401B41F289318842C3
:10347000F3D3032009E100F01FFB0500DFF8B405DA
:103480000068800708D500F017FB401B41F2893126
:103490008842F3D30320F8E05FFA89F9B9F1010F0C
:1034A00007D1DFF88805006830F08050DFF87C1520
:1034B0000860A06A002800F0E780A06A022840F0B7
:1034C000BE80DFF8BC040068070017F00300E16A63
:1034D000884228D117F07000216B491EB0EB011F04
:1034E00021D117F4FE40616BB0EB012F1BD1A06B13
:1034F000072801D1002000E0012017F400318142AB
:1035000011D117F4C000E16B891E0905490D490569
:10351000884208D117F0C060216C891E090611F09D
:103520007E41884267D00C2E63D0DFF844040068E7
:10353000400104D4DFF838040068C00001D5012040
:10354000A3E0DFF82C04006830F08070DFF820146E
:10355000086000F0B1FA0500DFF81404006880018B
:1035600006D500F0A9FA401B0328F5D303208CE010
:10357000DFF80C040068DFF8C0140840E16A084373
:10358000216B491E50EA0110616B50EA0120E16B8A
:10359000891E0905490D49050843216C891E090644
:1035A00011F07E410843A16B090950EA4140DFF860
:1035B000D0130860DFF8B803006850F08070DFF8BF
:1035C000B0130860DFF8B803006850F08070DFF8CF
:1035D000B013086000F070FA0500DFF8940300688B
:1035E000800151D400F068FA401B0328F5D3032072
:1035F0004BE0012049E0DFF878030068800143D404
:10360000DFF86C03006850F08070DFF86413086026
:10361000DFF86C03006850F08070DFF86413086016
:1036200000F04AFA0500DFF84803006880012BD457
:1036300000F042FA401B0328F5D3032025E00C2EAE
:1036400020D0DFF82C03006830F08070DFF8201302
:10365000086000F031FA0500DFF81403006880010B
:1036600006D500F029FA401B0328F5D303200CE00F
:10367000DFF80C030068DFF8C4130840DFF800131C
:10368000086001E0012000E00020BDE8F283F8B509
:1036900004000D00002C01D10120CEE0DFF8A003D2
:1036A000006810F00700A84211D2DFF89403006808
:1036B000C008C0002843DFF888130860DFF88003E3
:1036C000006810F00700A84201D00120B5E0207882
:1036D000800711D5DFF89C02006810F0F000A168A7
:1036E000884209D2DFF88C02006830F0F000A1684F
:1036F0000843DFF8801208602078C00743D560686F
:10370000032806D1DFF86802006880011CD401207C
:1037100093E06068022806D1DFF854020068800355
:1037200012D4012089E06068002806D1DFF8400249
:103730000068800708D401207FE0DFF834020068C9
:10374000400501D4012078E0DFF8280200688008F5
:10375000800061680843DFF81C12086000F0ACF9D3
:103760000600DFF81002006810F00C006168B0EB92
:10377000810F08D000F0A0F9801B41F28931884206
:10378000EFD3032059E02078800711D5A068DFF837
:10379000E411096811F0F001884209D2DFF8D40180
:1037A000006830F0F000A1680843DFF8C811086035
:1037B000DFF88C02006810F00700854211D2DFF8B4
:1037C00080020068C008C0002843DFF87412086057
:1037D000DFF86C02006810F00700A84201D0012059
:1037E0002BE02078400707D56248006830F4E0609D
:1037F000E16808435F4908602078000708D55D4804
:10380000006830F46050216950EAC10059490860ED
:1038100000F014F8DFF81012564A1268C2F30312CF
:10382000895C11F01F01C840534908605348006883
:1038300000F010F907003800C0B2F2BDF0B400216A
:103840000020DFF830C1DCF800C01CF00C0C66462C
:10385000DFF82CC1DCF800C01CF0030C6746002E1A
:1038600003D00C2E1FD1012F1DD1DFF804C1DCF8CD
:1038700000C05FEA0C7C07D4DFF8A4C1DCF800C00C
:10388000CCF3032C614606E0DFF8E4C0DCF800C0AE
:10389000CCF3031C6146DFF8ACC15CF82110002EAC
:1038A0000CD108000AE0042E03D1DFF89CC1604669
:1038B00004E0082E02D1DFF894C160460C2E38D106
:1038C000DFF8BCC0DCF800C01CF0030C63469C466B
:1038D000BCF1020F03D0BCF1030F04D007E0DFF806
:1038E00068C1624604E0DFF864C1624600E00A0095
:1038F000DFF88CC0DCF800C0CCF3021C1CF1010C1A
:103900006546DFF87CC0DCF800C0CCF3062C0CFB6D
:1039100002F2B2FBF5F2DFF868C0DCF800C0CCF3CD
:10392000416C1CF1010C5FEA4C0C6446B2FBF4FCE8
:103930006046F0BC704710480068704780B5FFF7DC
:10394000FAFF43490B4A1268C2F30222895C11F064
:103950001F01C84002BD80B5FFF7EDFF3C49054A95
:103960001268C2F3C222895C11F01F01C84002BD77
:10397000001002400810024008000020040000204F
:103980000C10024070B582B0040000262748006881
:10399000C00003D500F096F8050014E02348006845
:1039A00050F08050214908602048006810F0805095
:1039B0000090009800F086F805001C48006830F080
:1039C00080501A490860B5F5007F09D1812C15D3C4
:1039D000A12C02D30220060010E0012006000DE019
:1039E000812C02D30320060008E0802C02D10220A3
:1039F000060003E0702C01D1012006001048006889
:103A0000C008C00030430E4908600D48006810F03F
:103A10000700B04201D0012000E0002076BD000088
:103A200094100240041002409468000858100240AC
:103A300000700040901002408C809DF9FCFFEEFE6B
:103A400000200240B86500080024F40000127A004B
:103A5000CC68000838B50400002514480078002818
:103A60001ED04FF47A7011490978B0FBF1F010497B
:103A70000968B1FBF0F000F0F0F800280DD1102C2F
:103A800008D2002221005FF0FF3000F0D3F809488F
:103A9000046007E00120050004E00120050001E0CA
:103AA000012005002800C0B232BD00BF480100203F
:103AB000080000200400002001480068704700BF93
:103AC00094080020DFF89400006810F4C06070478C
:103AD0000100B1F5007F2CD1DFF88000006810F400
:103AE000C060B0F5007F36D0DFF87000006830F4B9
:103AF000C06050F40070DFF864301860DFF86000D8
:103B0000006832235843DFF85C30B0FBF3F0401C10
:103B10000200DFF854000068400503D5002A01D0F8
:103B2000521EF6E7DFF840000068400513D5032079
:103B300012E0DFF82800006810F4C060B0F5806F74
:103B400009D0DFF81800006830F4C06050F48060DD
:103B5000DFF8083018600020704700000070004057
:103B60000800002040420F001470004010F00702CF
:103B70003D4B1B6819004FF6FF0319403B4B53EABE
:103B800002231943384B1960704737480068C0F367
:103B90000220704710B440B2002804D40A01344B0C
:103BA00040B21A5407E00A01324B40B210F00F0441
:103BB000234403F8042C10BC704770B4030013F0C6
:103BC0000704D4F10706052E01D3042001E0D4F147
:103BD0000700261D072E01D2002500E0E51E012664
:103BE00016FA00F0401E0840A8400121A940491ED5
:103BF0001140084370BC704710B50400601EB0F15E
:103C0000807F01D301200EE0601E1B4908600F2158
:103C10005FF0FF30FFF7BEFF002018490860072063
:103C200017490860002010BD10B504002000FFF700
:103C30009DFF10BDF8B504000D0016000027FFF72A
:103C4000A4FF0700320029003800FFF7B6FF01008B
:103C5000200040B2FFF79EFFF1BD10B50400200028
:103C6000FFF7CAFF10BD00000CED00E00000FA05F0
:103C700000E400E018ED00E014E000E018E000E0EF
:103C800010E000E02DE9F843040000275FF0000891
:103C90002068000534D5606E002812D0B0F5800F82
:103CA00015D0B0F5000F03D0B0F5400F16D016E0D8
:103CB000DFF86404006850F48030DFF85C140860BA
:103CC0000FE00021201D00F03AFA070009E0002172
:103CD00014F1200000F003FB070002E001E00120E6
:103CE0000700FFB2002F0AD1DFF83004006830F47B
:103CF0004000616E0843DFF82414086000E0B84615
:103D00002068C00434D5A06E002812D0B0F1807FA6
:103D100015D0B0F1007F03D0B0F1407F16D016E08F
:103D2000DFF8F403006850F48030DFF8EC1308602B
:103D30000FE00021201D00F002FA070009E0002139
:103D400014F1200000F0CBFA070002E001E00120AE
:103D50000700FFB2002F0AD1DFF8C003006830F07F
:103D60004070A16E0843DFF8B413086000E0B84665
:103D70002068800340F189805FF00009DFF8A0032C
:103D80000068C00010D4DFF89803006850F080503D
:103D9000DFF88C130860DFF88803006810F08050AB
:103DA0000090009801208146DFF87803006850F405
:103DB0008070DFF870130860FFF77EFE0600DFF802
:103DC00064030068C00506D4FFF776FE801B032855
:103DD000F5D303200700FFB2002F48D1DFF84803D6
:103DE000006810F440700500002D1CD0D4F8840049
:103DF000854218D0DFF83003006830F440700500C9
:103E0000DFF82403006850F48030DFF81C130860EA
:103E1000DFF81403006830F48030DFF80C1308601A
:103E2000DFF804030560E80710D5FFF745FE06003C
:103E3000DFF8F4020068800708D4FFF73DFE801B1E
:103E400041F289318842F3D303200700FFB2002FEB
:103E50000BD1DFF8D402006830F44070D4F884103D
:103E60000843DFF8C412086002E0B84600E0B84634
:103E70005FFA89F9B9F1010F07D1DFF8A4020068F0
:103E800030F08050DFF8981208602078C00709D51C
:103E9000DFF88802006880088000A16B0843DFF823
:103EA0007C1208602078800709D5DFF8700200686E
:103EB00030F00C00E16B0843DFF8601208602078F6
:103EC000400709D5DFF85402006830F03000216C5B
:103ED0000843DFF8481208602078000709D5DFF8AA
:103EE0003C02006830F0C000616C0843DFF82C121F
:103EF00008602078C00609D5DFF82002006830F499
:103F00004070A16C0843DFF8141208602078800626
:103F100009D5DFF80802006830F44060E16C08431E
:103F2000DFF8F81108602068800509D5DFF8EC019A
:103F3000006830F44020E16D0843DFF8E0110860CC
:103F40002068400509D5DFF8D401006830F440103E
:103F5000216E0843DFF8C41108602078400609D5B7
:103F6000DFF8B801006830F44050216D0843DFF8F5
:103F7000AC1108602078000609D5DFF8A0010068C0
:103F800030F44040616D0843DFF89011086020680C
:103F9000C00509D5DFF88401006830F44030A16D18
:103FA0000843DFF8781108602068800421D5DFF825
:103FB0006C01006830F04060E16E0843DFF85C118E
:103FC0000860E06EB0F1006F06D15348006850F40D
:103FD0008010514908600CE0E06EB0F1806F08D1AC
:103FE0000121201D00F0ABF80700FFB2002F00D028
:103FF000B8462068000321D5DFF82001006830F0C2
:104000004060216F0843DFF814110860206FB0F1A1
:10401000006F06D14048006850F480103E490860A7
:104020000CE0206FB0F1806F08D10121201D00F05D
:1040300086F80700FFB2002F00D0B8462068400382
:1040400021D5DFF8D800006830F04060616F084388
:10405000DFF8C8100860606FB0F1006F06D12E481D
:10406000006850F480102C4908600CE0606FB0F1DB
:10407000806F08D10121201D00F061F80700FFB218
:10408000002F00D0B8462068400425D5DFF88C000A
:10409000006830F04050A16F0843DFF880100860DE
:1040A000A06FB0F1805F09D10221201D00F047F818
:1040B0000700FFB2002F0FD0B8460DE0A06FB0F19F
:1040C000005F09D1022114F1200000F008F9070077
:1040D000FFB2002F00D0B8462068000409D5DFF8F1
:1040E0003C00006830F08040E16F0843DFF82C109E
:1040F00008602068C0030AD5DFF82000006820F0BF
:104100000040D4F880100843DFF8101008604046E3
:10411000C0B2BDE8F28300000C10024088100240DB
:10412000581002400070004090100240DFF8000379
:10413000006850F00400DFF8F81208607047F8B526
:1041400004000D000027DFF8EC02006810F0030FF8
:1041500016D0DFF8E002006810F003002168884202
:104160000BD12068002808D0DFF8C8020068C0F32F
:104170000210401C616888423AD00120070037E0F5
:104180002068012804D020D3032811D008D31CE0D4
:10419000DFF89C020068800701D40120070016E0C8
:1041A000DFF88C020068400501D4012007000EE012
:1041B000DFF87C020068800306D4DFF87402006830
:1041C000400301D40120070001E001200700FFB2F5
:1041D000002F0DD1DFF85C02006830F07300216819
:1041E00008436168491E50EA0110DFF84812086070
:1041F000FFB2002F70D1DFF83802006830F0806025
:10420000DFF82C120860FFF757FC0600DFF82002E9
:104210000068000106D5FFF74FFC801B0328F5D38B
:1042200003200700FFB2002F56D1002D10D1DFF878
:1042300008020068DFF804120840A16850EA012073
:10424000E168090950EA4140DFF8EC11086026E016
:10425000012D12D1DFF8E0010068DFF8E411084019
:10426000A16850EA01202169891E0905490D490507
:104270000843DFF8C411086011E0DFF8BC010068F2
:10428000DFF8C0110840A16850EA01206169891E69
:10429000090611F07E410843DFF89C11086064486C
:1042A000006850F0806062490860FFF705FC060076
:1042B0005F480068000106D4FFF7FEFB801B03285F
:1042C000F6D303200700FFB2002F05D15A4800683B
:1042D000A1690843584908603800C0B2F2BDF8B57A
:1042E00004000D0000275348006810F0030F14D09D
:1042F0005048006810F00300216888420AD1206805
:10430000002807D04B480068C0F30210401C6168C9
:10431000884234D00120070031E02068012804D011
:104320001CD303280FD007D318E04148006880074A
:1043300001D40120070013E03D480068400501D486
:10434000012007000CE03A480068800305D4384893
:104350000068400301D40120070001E001200700AC
:10436000FFB2002F0BD13348006830F07300216892
:1043700008436168491E50EA01102E490860FFB2E7
:10438000002F52D12A48006830F080502849086038
:10439000FFF792FB060026480068800006D5FFF76D
:1043A0008BFB801B0328F6D303200700FFB2002FEE
:1043B0003BD1002D0DD12448006820490840A16858
:1043C00050EA0120E168090950EA41401E490860AD
:1043D0000EE01D4800681B490840A16850EA012012
:1043E0002169891E090611F07E41084316490860BB
:1043F0000F48006850F080500D490860FFF75CFBE3
:1044000006000B480068800006D4FFF755FB801BB0
:104410000328F6D303200700FFB2002F05D10A4876
:10442000006861690843084908603800C0B2F2BDFD
:10443000001002400C10024010100240FF80FDFFEF
:10444000FF809FFFFF80FFF91410024010B582B07B
:104450000400E4B214F00300DFF840170860DFF84E
:104460003C070068C0B2009000230022DFF830074C
:104470000178DFF83007006800F0ACFB002016BDC3
:1044800008B42DE9FE4704000D0016000E9F5FF0F2
:10449000000802A8002101609DF83000082813D10F
:1044A0009DF82E0000280FD13800C0B200909DF872
:1044B0002D303200D2B22900C9B2200000F08AFBB0
:1044C00010EB0800804677E09DF82E009DF8301034
:1044D00051FA80F009283CDA02A800909DF82D30AE
:1044E0003200D2B22900C9B2200000F0ACFB10EBC0
:1044F0000800804601209DF930108840401E9DF93B
:104500002E1088408DF809003800C0B29DF92E1099
:1045100088408DF80A009DF809009DF8081031EADE
:1045200000009DF809109DF80A20114008438DF8FD
:104530000B009DF80B0000909DF82D303200D2B298
:104540002900C9B2200000F045FB10EB08008046AE
:1045500032E09DF82E0000282BD19DF83000002875
:1045600027D09DF83000212823DA9DF83000C01DA7
:10457000082190FBF1F0824600208146D14506DA01
:1045800002A800F809703F1219F10109F6E7504638
:1045900080B2019002A800909DF82D303200D2B276
:1045A0002900C9B2200000F09AFB10EB08008046F9
:1045B00002E05FF0FF3000E04046BDE8FE075DF836
:1045C00008FB08B42DE9FF4F04000D001600109FF2
:1045D0005FF0000802A8002101600DF108095FF0FA
:1045E000000B9DF836009DF8381051FA80F009282C
:1045F00037DA02A800909DF835303200D2B2290097
:10460000C9B2200000F01FFB10EB080080469DF8A7
:1046100008009DF83810D1F108019DF83620891A5C
:1046200088408DF809009DF8370000280CD099F9D2
:1046300001009DF83810D1F10801084189F8020005
:1046400099F9020038605AE09DF809009DF8381089
:10465000D1F1080108418DF80A009DF80A00386080
:104660004DE09DF83600002846D19DF8380000281E
:1046700042D09DF8380021283EDA9DF83800C01D50
:10468000082190FBF1F00390039880B2019002A8FA
:1046900000909DF835303200D2B22900C9B2200016
:1046A00000F087FB10EB080080460020834603984B
:1046B000401E8246BAF1000F09D402A810F80A0081
:1046C0005FEA0B2151FA80FBBAF1010AF2E79DF88B
:1046D000370000280DD09DF83800D0F120001BFADB
:1046E00000FB9DF83800D0F12000594601413960A7
:1046F00005E0C7F800B002E05FF0FF3000E04046A0
:1047000004B0BDE8F00F5DF808FB7CB504000D00B7
:10471000002600208DF80400DFF88C0400F0B4FBC4
:10472000E4B2002C4FD101A80090DFF88004437E52
:1047300001220121DFF86C04006800F084FA060011
:10474000002E02D05FF0FF303EE00020DFF8501472
:104750000870DFF85C0400F097FB01A80090DFF818
:104760004C04437E0022DFF838040178DFF834047B
:10477000006800F068FA0600002E02D05FF0FF30FB
:1047800022E09DF80400DFF82414096A884202D070
:104790005FF0FF3018E000200090DFF8100443784D
:1047A0000022DFF8FC030178DFF8F803006800F06E
:1047B00011FA0600002E02D05FF0FF3004E0002066
:1047C000DFF8D8130860002076BD80B5DFF8E40379
:1047D00000F05AFB002002BD80B5DFF8C00300687E
:1047E000002802D55FF0FF3010E080200090002309
:1047F0000022DFF8AC030178DFF8A803006800F0BE
:10480000E9F90020DFF894130860002002BD70B5BC
:104810008EB007A8DFF8A0131CC91CC00C390C38D7
:104820000AA8DFF898131022FCF75CFEDFF86C038F
:104830000068002806D5DFF8880300F025FB5FF04C
:10484000FF3042E0DFF87C0300F01EFB0020050093
:10485000B5F5A37F35DA04A8DFF850130C2202FB6C
:1048600005F211444CC94CC00C390C3803A928007E
:1048700080B200F091F803980699884201D107AC04
:1048800000E00AAC9DF8130000280CD006980290B6
:104890000698019003980090039B2A002100CA48C3
:1048A00000F0F2FA0BE00698029006980190039847
:1048B0000090039B2A002100C44800F0E5FA6D1C1B
:1048C000C6E7C34800F0E0FA00200EB070BDF0B5B6
:1048D00087B004000D000026A4B2B4F5A37F02DB6C
:1048E0005FF0FF3056E0AD480068002802D55FF069
:1048F000FF304FE0A4B2002C05D12800C0B2FFF772
:10490000A5FD002046E0A4B2012C05D1E80701D5A1
:10491000FFF762FF00203DE003A8A449A4B20C22E7
:1049200002FB04F211448CC98CC00C390C389DF880
:104930001100002802D05FF0FF302BE09DF90C0041
:1049400010F1010F0CD09DF90C00944909688842C0
:1049500006D09DF80C00C0B2FFF778FD8019060064
:10496000029503A881B069460CC80CC102680A60B0
:104970000838083908BC002289480178894800684D
:10498000FFF77EFD80190600002E02D05FF0FF3099
:1049900000E0002007B0F0BDF0B587B004000D00C6
:1049A0000026002D02D15FF0FF3044E0A4B2B4F540
:1049B000A37F02DB5FF0FF303DE07848006800280D
:1049C00002D55FF0FF3036E003A87849A4B20C228C
:1049D00002FB04F211448CC98CC00C390C389DF9CF
:1049E0000C0010F1010F0CD09DF90C006B49096807
:1049F000884206D09DF80C00C0B2FFF727FD801951
:104A00000600029503A881B069460CC80CC1026873
:104A10000A600838083908BC0022614801786148FA
:104A20000068FFF7CEFD80190600002E02D05FF06F
:104A3000FF3000E0002007B0F0BDF0B585B0040005
:104A40000D0016000027002D02D15FF0FF304EE070
:104A5000B6B2002E02D15FF0FF3048E0A4B2B4F548
:104A6000A37F02DB5FF0FF3041E04C480068002884
:104A700002D55FF0FF303AE002A84C49A4B20C2204
:104A800002FB04F21144B1E80C10A0E80C100C3940
:104A90000C389DF80D00002802D05FF0FF3026E0B2
:104AA0009DF9080010F1010F0CD09DF908003B4959
:104AB0000968884206D09DF80800C0B2FFF7C6FC1E
:104AC000C0190700300080B2019000959DF80930B0
:104AD0000022334801783348006800F000F9C0191B
:104AE0000700002F02D05FF0FF3000E0002005B08B
:104AF000F0BDF0B585B004000D0016000027002DB4
:104B000002D15FF0FF3047E0B6B2002E02D15FF075
:104B1000FF3041E0A4B2B4F5A37F02DB5FF0FF30C9
:104B20003AE01E480068002802D55FF0FF3033E00D
:104B300002A81E49A4B20C2202FB04F21144B1E8FF
:104B40000C10A0E80C100C390C389DF9080010F17D
:104B5000010F0CD09DF9080010490968884206D061
:104B60009DF80800C0B2FFF771FCC01907003000C3
:104B700080B2019000959DF8093000220848017824
:104B80000848006800F015F9C0190700002F02D08E
:104B90005FF0FF3000E0002005B0F0BD0000002015
:104BA0009C080020900800208C6600086020000807
:104BB0001466000858650008B46800088468000896
:104BC000B06600083C670008F0640008246500082F
:104BD0005C6700082DE9FC4705000E0017009846A9
:104BE0000A9C5FF0000AF6B2012E0AD18DF800701F
:104BF00058F080008DF801008DF8024003208146B6
:104C000007E058F080008DF800008DF80140022088
:104C1000814600F062F94FF47A735FFA89F94A46E7
:104C200092B201A9684600F041F9824600F05EF9AF
:104C30005FFA8AFABAF1000F02D05FF0FF3000E0AD
:104C40000020BDE8F6872DE9FC4704000D001600A2
:104C50001F00DDF828805FF0000AB8F1000F02D1D4
:104C60005FF0FF3039E0EDB2012D0BD18DF800601F
:104C700017F07F008DF8010000208DF8020003205E
:104C8000814608E017F07F008DF8000000208DF8C5
:104C900001000220814600F020F94FF47A735FFA98
:104CA00089F94A4692B201A9684600F0FFF850EA35
:104CB0000A00824600F01AF95FFA8AFABAF1000F88
:104CC00002D05FF0FF3008E001A85FFA89F948449C
:104CD00010F8010C88F800000020BDE8F6872DE9E7
:104CE000F74F92B01D001F9C5FF000095FF0000BB2
:104CF0001E98002802D15FF0FF3057E0A4B2002CCC
:104D000002D15FF0FF3051E09DF84C0001280BD13B
:104D10009DF850008DF8000055F080008DF80100DE
:104D200002208DF8020006E055F080008DF80000AA
:104D300001208DF80200A4B227001E980600002072
:104D40008246012F2BDB402F01DAB84601E05FF0ED
:104D5000400800F0C2F84FF47A739DF8022092B236
:104D600001A9684600F0A2F850EA0B0083464FF410
:104D70007A734046020092B201A9300000F096F822
:104D800050EA0B00834600F0B1F818EB05054644E5
:104D900018EB0909B7EB08071AF1010AD1E7A4B229
:104DA000A14502D05FF0FF3000E0002015B0BDE863
:104DB000F08F2DE9F74F94B01D00209E219C5FF0ED
:104DC00000085FF0000A002E02D15FF0FF3058E0CB
:104DD000A4B2002C02D15FF0FF3052E09DF85400E5
:104DE00001280BD19DF858008DF8000015F07F00C8
:104DF0008DF8010002208DF8020006E015F07F001A
:104E00008DF8000001208DF80200A4B22700019661
:104E100000208146012F2DDB402F01DABB4601E047
:104E20005FF0400B00F059F84FF47A739DF80220C0
:104E300092B202A9684600F039F850EA0A008246A8
:104E40004FF47A735846020092B2019903A800F019
:104E50002DF850EA0A00824600F048F806EB0B00F5
:104E600001901BEB05051BEB0808B7EB0B0719F1CD
:104E70000109CFE7A4B2A04502D05FF0FF3000E007
:104E8000002017B0BDE8F08F0EB400B582B003A9C2
:104E9000009102466B460121034878440A30FBF733
:104EA00073F906BC5DF810FBA51900002DE9F0416F
:104EB00082B004000D0016001F005FF00008BFB2B2
:104EC000009733009BB22A002100534800F035F9C7
:104ED00080464046C0B2BDE8F68180B500224FF45E
:104EE00080715FF0904000F0A5FC01BD80B501220B
:104EF0004FF480715FF0904000F09CFC01BD70B5F4
:104F0000ADF5027D4548FFF7BFFF45490020FFF79B
:104F1000FCFB01210120FFF7DAFCFFF778FCC5203C
:104F2000040021008A20FFF7D2FC69468A20FFF79F
:104F300033FD220000993B48FFF7A6FF0B20040039
:104F400021009120FFF7C3FC69469120FFF724FD63
:104F5000220000993448FFF797FF4CF265000400E7
:104F600021009220FFF7B3FC69469220FFF714FD61
:104F7000220000992D48FFF787FF40F665400400A6
:104F800021008120FFF7A3FC69468120FFF704FD83
:104F9000220000992648FFF777FF264804002100E9
:104FA0005D20FFF794FC69465D20FFF7F5FC2200C9
:104FB00000992148FFF768FF4FF6FF7005000020B9
:104FC0000600FF2E12DC280080B20009684041A9CB
:104FD0008855E80706D5ADB2680880F4064595F017
:104FE000790501E0ADB26D08761CEAE74FF48072F6
:104FF00041A90620FFF721FD4FF4807201A904208A
:10500000FFF777FDFFF7E1FB0C48FFF73DFF0020BE
:105010000DF5027D70BD0000D4070020D4660008A5
:10502000E8F7010088650008E86500083C660008AC
:105030007C64000865F8FFFF7C6700089C67000837
:1050400038B50400002C01D1012075E0606A002809
:1050500006D16068B0F5827F06D00020E06103E0F1
:1050600000202061002060610020A06294F85D00B3
:10507000002805D1002084F85C00200000F017FC17
:10508000022084F85D002068006830F0400021684C
:105090000860E068B0F5E06F02D90020050002E08A
:1050A0004FF480500500E068B0F5706F05D0E068FF
:1050B000B0F5E06F01D00020A062606810F482704B
:1050C000A16811F404410843217C11F00201084356
:1050D000217D11F001010843A16911F40071084319
:1050E000217F11F03801084394F8201011F080015D
:1050F0000843A16A11F40051084321680860A069BF
:10510000000C10F0040094F8241011F01001084372
:1051100094F8341011F008010843E16811F470614B
:10512000084315F480510843216848600020206638
:10513000012084F85D00002032BD2DE9FE4F0400FF
:105140000D0016001F00DDF830805FF0010A5FF0EF
:10515000000B94F85C00012801D1022051E10120EC
:1051600084F85C00FEF7A8FC814694F85D008DF899
:10517000000060680190ADF80270ADF808709DF80D
:10518000000001280DD00198B0F5827F06D1A068FB
:10519000002803D19DF80000042802D00220834695
:1051A00027E1002D04D0002E02D0BFB2002F02D183
:1051B000012083461DE194F85D00042802D00520FB
:1051C00084F85D00002020662664A4F84670A4F8E8
:1051D0004470A563E787A7870020E064002020656E
:1051E000E068B0F5E06F03D8BDF80800022806D3E8
:1051F0002068406830F480502168486005E02068ED
:10520000406850F48050216848602068006840067B
:1052100005D42068006850F0400021680860E0680C
:10522000B0F5E06F50D96068002803D0BDF80200E7
:10523000012809D1A06B00882168C860A06B801C80
:10524000A063E08F401EE087E08F002804D1B4F80F
:105250004600002800F0C28020688068800711D5D1
:10526000E08F00280ED0BAF1010F0BD1A06B00889F
:105270002168C860A06B801CA063E08F401EE0879F
:105280000020824620688068C00711D5B4F8460027
:1052900000280DD02068C068216C0880206C801C1C
:1052A0002064B4F84600401EA4F84600012082465F
:1052B000FEF702FCB0EB09004045C5D318F1010F21
:1052C000C2D00320834694E06068002803D0BDF874
:1052D0000200012817D1E08F02280AD3A06B0088B2
:1052E0002168C860A06B801CA063E08F801EE087EF
:1052F00009E0A06B007821680873A06B401CA063D4
:10530000E08F401EE087E08F002803D1B4F846000C
:10531000002863D02068806880071FD5E08F0028B0
:105320001CD0BAF1010F19D1E08F02280AD3A06B6B
:1053300000882168C860A06B801CA063E08F801E7D
:10534000E08709E0A06B007821680873A06B401C1F
:10535000A063E08F401EE0870020824620688068BE
:10536000C0072CD5B4F84600002828D0B4F8460071
:10537000022816D32068C068216C0880206C801C2D
:105380002064B4F84600801EA4F84600B4F8460035
:10539000022812D22068406850F48050216848608A
:1053A0000BE02068007B216C0870206C401C20649E
:1053B000B4F84600401EA4F8460001208246FEF7DD
:1053C0007BFBB0EB0900404502D318F1010F02D17D
:1053D000B8F1000F97D1032083460AE04A464146C0
:1053E000200000F0F7F8002803D001208346202099
:1053F0002066012084F85D00002084F85C00584697
:10540000C0B2BDE8FE8F2DE9F04782B004000D0068
:1054100016001F00DDF82880FEF74EFB381A18EB47
:1054200000008146FEF748FB82466948006840015B
:10543000000D00FB09F00090206880682840A84219
:1054400001D1012000E00020F6B2B04244D017F1B3
:10545000010FF1D0FEF730FBB0EB0A00484502D255
:10546000B9F1000F2FD12068406830F0E0002168CA
:1054700048606068B0F5827F0DD1A068B0F5004F3C
:1054800003D0A068B0F5806F05D12068006830F0C7
:10549000400021680860A06AB0F5005F0BD1206869
:1054A000006830F40050216808602068006850F4FB
:1054B000005021680860012084F85D00002084F815
:1054C0005C00032009E00098002801D100208146FB
:1054D0000098401E0090AFE70020BDE8F6872DE958
:1054E000F04F83B004000D0016001F00DDF830807F
:1054F00000208DF80400FEF7DFFA381A18EB0000E0
:105500008146FEF7D9FA824620680C30834630483F
:10551000006823214843000D00FB09F0009020683B
:1055200080682840B0424FD0B5F5C06F07D1002E3B
:1055300005D19BF800008DF804009DF8040017F1D8
:10554000010FECD0FEF7B8FAB0EB0A00484502D2E2
:10555000B9F1000F2FD12068406830F0E0002168D9
:1055600048606068B0F5827F0DD1A068B0F5004F4B
:1055700003D0A068B0F5806F05D12068006830F0D6
:10558000400021680860A06AB0F5005F0BD1206878
:10559000006830F40050216808602068006850F40A
:1055A000005021680860012084F85D00002084F824
:1055B0005C00032009E00098002801D1002081460A
:1055C0000098401E0090AAE70020BDE8FE8F000072
:1055D0000800002070B582B004000D00160000968F
:1055E0002B0000224FF4C0512000FFF778FF002865
:1055F00005D0206E50F02000206603201FE00096AA
:105600002B00002280212000FFF7FDFE002805D09E
:10561000206E50F020002066032010E000962B0042
:1056200000224FF4C0612000FFF759FF002805D089
:10563000206E50F020002066032000E0002076BDA0
:1056400078B400220D68D540002D00F0F1800D687F
:105650000126964035402B00002B00F0E7800D79A5
:1056600015F00305012D04D00D7915F00305022D69
:1056700019D185682C0003251600F6B27600B540D6
:10568000AC43CD681600F6B27600B5402C4384607A
:1056900045682C0001259540AC434D68C5F30015C5
:1056A00095402C4344600D7915F00305032D0AD174
:1056B000C56A2C0001259540AC434D68C5F3C00573
:1056C00095402C43C4620D7915F00305032D0ED0CF
:1056D000C5682C0003251600F6B27600B540AC4331
:1056E0008D681600F6B27600B5402C43C4600D7983
:1056F00015F00305022D16D1D50800EB85052D6A9E
:105700002C000F2512F00706F6B2B600B540AC43E8
:105710000D6912F00706F6B2B600B5402C43D50865
:1057200000EB85052C6205682C0003251600F6B2F7
:105730007600B540AC430D7915F003051600F6B2BE
:105740007600B5402C4304604D6815F4403F6DD0A1
:105750003D4D2D6855F001053B4E35603A4D2D68A5
:1057600015F001050095009D384D960855F8265016
:105770002C000F2512F00306F6B2B600B540AC437C
:10578000B0F1904F01D100251EE0314DA84201D16A
:10579000012519E02F4DA84201D1022514E02E4D1C
:1057A000A84201D103250FE02C4DA84201D10425C8
:1057B0000AE02B4DA84201D1052505E0294DA8425C
:1057C00001D1062500E0072512F00306F6B2B60067
:1057D000B5402C431D4D960845F82640224D2D68B6
:1057E0002C009C434D68ED0200D51C431E4D2C60DF
:1057F0001E4D2D682C009C434D68AD0200D51C4306
:105800001A4D2C601A4D2D682C009C434D68AD0339
:1058100000D51C43164D2C60164D2D682C009C4362
:105820004D68ED0300D51C43124D2C60521C09E756
:1058300071BC7047D2B2002A02D089B2816101E006
:1058400089B2816270470000601002400800014088
:105850000004004800080048000C00480010004800
:105860000014004800180048080401400C040140DE
:10587000040401400004014081B04848006850F031
:105880000100464908604548006810F0010000909A
:1058900000984348006850F08050414908604048F3
:1058A000006810F080500090009801B0704710B56B
:1058B00086B0040001A8142100F07AF82068394964
:1058C000884226D13548006850F48050334908603A
:1058D0003248006810F48050009000983248006808
:1058E00050F00100304908602F48006810F00100B6
:1058F00000900098E0200190022002900020039088
:10590000032004900520059001A95FF09040FFF767
:1059100097FE06B010BD10B5A8B0040001A8142170
:1059200000F046F806A8882100F042F820681F49D8
:10593000884231D1022006900020159006A8FEF77B
:10594000A1F9002801D000F08BF91548006850F447
:105950000030134908601248006810F400300090CD
:1059600000981148006850F001000F4908600E4887
:10597000006810F00100009000980C2001900220B7
:10598000029000200390032004900720059001A9B5
:105990005FF09040FFF754FE28B010BD6010024049
:1059A00058100240003001404C10024000440040BA
:1059B000002200F057B9000011B581B00C004FF47F
:1059C0007A73012201A99D4800F0A3F9019816BD40
:1059D0000021814208DA002241F658339A4201DA66
:1059E000521CF9E7491CF4E7704780B500F002FD4E
:1059F00000F00FF800F0BBF800F091F800F059F853
:105A0000FFF77DFA8E48FFF73FFAC820FFF7E0FF67
:105A1000F6E700B597B005A84421FFF7C9FF68462F
:105A20001421FFF7C5FF4FF40070FEF751F800286E
:105A300001D000F015F900F0F7FC8248006830F062
:105A4000180080490860142005900120079001206B
:105A50000B9000200C9060200D9002200F900120F0
:105A60001090012011901420129007201390022012
:105A700014900220159005A8FDF796FA002801D091
:105A800000F0EEF80F20009003200190002002901B
:105A90004FF4806003900020049002216846FDF7D7
:105AA000F6FD002801D000F0DBF8FEF73FFB17B051
:105AB00000BD80B56448654908604FF48270634951
:105AC00048600020614988604FF4E0605F49C86029
:105AD00000205E49086100205C4948614FF4007075
